{
  "address": "0x2e1219a47eA42a5dE953EF6E0aAd9f4A4C1a21a0",
  "abi": [
    {
      "inputs": [
        {
          "internalType": "address",
          "name": "revnuTokenAddress",
          "type": "address"
        }
      ],
      "stateMutability": "nonpayable",
      "type": "constructor"
    },
    {
      "anonymous": false,
      "inputs": [
        {
          "indexed": false,
          "internalType": "uint256",
          "name": "bountyId",
          "type": "uint256"
        },
        {
          "indexed": false,
          "internalType": "address",
          "name": "bountyCreator",
          "type": "address"
        },
        {
          "indexed": false,
          "internalType": "string",
          "name": "actionId",
          "type": "string"
        },
        {
          "indexed": false,
          "internalType": "string",
          "name": "actionType",
          "type": "string"
        },
        {
          "indexed": false,
          "internalType": "uint256",
          "name": "actionCount",
          "type": "uint256"
        },
        {
          "indexed": false,
          "internalType": "uint256",
          "name": "noOfClaims",
          "type": "uint256"
        },
        {
          "indexed": false,
          "internalType": "uint256",
          "name": "reward",
          "type": "uint256"
        }
      ],
      "name": "BountyAdded",
      "type": "event"
    },
    {
      "anonymous": false,
      "inputs": [
        {
          "indexed": false,
          "internalType": "uint256",
          "name": "bountyId",
          "type": "uint256"
        },
        {
          "indexed": false,
          "internalType": "address",
          "name": "claimer",
          "type": "address"
        },
        {
          "indexed": false,
          "internalType": "bytes32",
          "name": "claimHash",
          "type": "bytes32"
        },
        {
          "indexed": false,
          "internalType": "uint256",
          "name": "claimReward",
          "type": "uint256"
        }
      ],
      "name": "BountyClaimed",
      "type": "event"
    },
    {
      "inputs": [],
      "name": "_bountiesCounter",
      "outputs": [
        {
          "internalType": "uint256",
          "name": "_value",
          "type": "uint256"
        }
      ],
      "stateMutability": "view",
      "type": "function"
    },
    {
      "inputs": [
        {
          "internalType": "uint256",
          "name": "",
          "type": "uint256"
        }
      ],
      "name": "bountyRegistry",
      "outputs": [
        {
          "internalType": "uint256",
          "name": "bountyId",
          "type": "uint256"
        },
        {
          "internalType": "address",
          "name": "bountyCreator",
          "type": "address"
        },
        {
          "internalType": "string",
          "name": "actionId",
          "type": "string"
        },
        {
          "internalType": "string",
          "name": "actionType",
          "type": "string"
        },
        {
          "internalType": "uint256",
          "name": "actionCount",
          "type": "uint256"
        },
        {
          "internalType": "uint256",
          "name": "noOfClaims",
          "type": "uint256"
        },
        {
          "internalType": "uint256",
          "name": "reward",
          "type": "uint256"
        }
      ],
      "stateMutability": "view",
      "type": "function"
    },
    {
      "inputs": [
        {
          "internalType": "uint256",
          "name": "_bountyId",
          "type": "uint256"
        }
      ],
      "name": "claimBounty",
      "outputs": [],
      "stateMutability": "payable",
      "type": "function"
    },
    {
      "inputs": [
        {
          "internalType": "address",
          "name": "",
          "type": "address"
        }
      ],
      "name": "claimEarnings",
      "outputs": [
        {
          "internalType": "uint256",
          "name": "",
          "type": "uint256"
        }
      ],
      "stateMutability": "view",
      "type": "function"
    },
    {
      "inputs": [
        {
          "internalType": "bytes32",
          "name": "",
          "type": "bytes32"
        }
      ],
      "name": "claimRegistry",
      "outputs": [
        {
          "internalType": "uint256",
          "name": "bountyId",
          "type": "uint256"
        },
        {
          "internalType": "address",
          "name": "claimer",
          "type": "address"
        },
        {
          "internalType": "bytes32",
          "name": "claimHash",
          "type": "bytes32"
        }
      ],
      "stateMutability": "view",
      "type": "function"
    },
    {
      "inputs": [
        {
          "internalType": "string",
          "name": "_actionId",
          "type": "string"
        },
        {
          "internalType": "string",
          "name": "_actionType",
          "type": "string"
        },
        {
          "internalType": "uint256",
          "name": "_actionCount",
          "type": "uint256"
        },
        {
          "internalType": "uint256",
          "name": "_reward",
          "type": "uint256"
        }
      ],
      "name": "createBounty",
      "outputs": [],
      "stateMutability": "payable",
      "type": "function"
    },
    {
      "inputs": [],
      "name": "getLatestBountyId",
      "outputs": [
        {
          "internalType": "uint256",
          "name": "",
          "type": "uint256"
        }
      ],
      "stateMutability": "view",
      "type": "function"
    },
    {
      "inputs": [],
      "name": "revnuToken",
      "outputs": [
        {
          "internalType": "contract RevnuToken",
          "name": "",
          "type": "address"
        }
      ],
      "stateMutability": "view",
      "type": "function"
    }
  ],
  "transactionHash": "0xc523d28140b78b7f074f769e59afa3afcf29089cb85146c3e74ae59216b40a2e",
  "args": [
    "0xe4c9EfbC5267F1616474a7B2ec26c1B7261F05D7"
  ],
  "numDeployments": 3,
  "solcInputHash": "8d02b0c7985ddce99740ec269e7d799e",
  "bytecode": "0x608060405234801561001057600080fd5b50604051610d2c380380610d2c83398101604081905261002f91610054565b600080546001600160a01b0319166001600160a01b0392909216919091179055610084565b60006020828403121561006657600080fd5b81516001600160a01b038116811461007d57600080fd5b9392505050565b610c99806100936000396000f3fe60806040526004361061007b5760003560e01c80639ab891ba1161004e5780639ab891ba1461013c578063a606971914610169578063aeb7c8a31461019c578063e31202c0146101d457600080fd5b806344021ad71461008057806356403b941461009557806379bbce71146100bd5780639aad017e14610125575b600080fd5b61009361008e36600461099c565b6101e7565b005b3480156100a157600080fd5b506100aa6104de565b6040519081526020015b60405180910390f35b3480156100c957600080fd5b506101026100d836600461099c565b60036020526000908152604090208054600182015460029092015490916001600160a01b03169083565b604080519384526001600160a01b039092166020840152908201526060016100b4565b34801561013157600080fd5b506001546100aa9081565b34801561014857600080fd5b506100aa6101573660046109b5565b60046020526000908152604090205481565b34801561017557600080fd5b5061018961018436600461099c565b6104ee565b6040516100b49796959493929190610a32565b3480156101a857600080fd5b506000546101bc906001600160a01b031681565b6040516001600160a01b0390911681526020016100b4565b6100936101e2366004610b31565b610644565b60008181526002602052604090205481146102425760405162461bcd60e51b81526020600482015260166024820152752137bab73a3c903237b2b9903737ba1032bc34b9ba1760511b60448201526064015b60405180910390fd5b600081815260026020526040902060048101546005909101541061029c5760405162461bcd60e51b81526020600482015260116024820152702137bab73a3c9031b7b6b83632ba32b21760791b6044820152606401610239565b600081336040516020016102cc92919091825260601b6bffffffffffffffffffffffff1916602082015260340190565b60408051601f198184030181529181528151602092830120600081815260039093529120600201549091508114156103465760405162461bcd60e51b815260206004820152601f60248201527f426f756e747920616c726561647920636c61696d656420627920757365722e006044820152606401610239565b604080516060810182528381523360208083019182528284018581526000868152600383528581209451855592516001850180546001600160a01b0319166001600160a01b03909216919091179055516002938401558582529190915290812060048101546006909101546103bb9190610ba5565b905060016002600085815260200190815260200160002060050160008282546103e49190610bc7565b90915550503360009081526004602052604081208054839290610408908490610bc7565b909155505060408051848152336020820152908101839052606081018290527f7f4af57e5bf7d0f67d0d2232aa09ed824c46d1399ffdabfcbd2e5692c2a9ba099060800160405180910390a160005460405163a9059cbb60e01b8152336004820152602481018390526001600160a01b039091169063a9059cbb90604401602060405180830381600087803b1580156104a057600080fd5b505af11580156104b4573d6000803e3d6000fd5b505050506040513d601f19601f820116820180604052508101906104d89190610bed565b50505050565b60006104e960015490565b905090565b600260208190526000918252604090912080546001820154928201805491936001600160a01b0316929161052190610c0f565b80601f016020809104026020016040519081016040528092919081815260200182805461054d90610c0f565b801561059a5780601f1061056f5761010080835404028352916020019161059a565b820191906000526020600020905b81548152906001019060200180831161057d57829003601f168201915b5050505050908060030180546105af90610c0f565b80601f01602080910402602001604051908101604052809291908181526020018280546105db90610c0f565b80156106285780601f106105fd57610100808354040283529160200191610628565b820191906000526020600020905b81548152906001019060200180831161060b57829003601f168201915b5050505050908060040154908060050154908060060154905087565b6000546040516370a0823160e01b815233600482015282916001600160a01b0316906370a082319060240160206040518083038186803b15801561068757600080fd5b505afa15801561069b573d6000803e3d6000fd5b505050506040513d601f19601f820116820180604052508101906106bf9190610c4a565b10156107035760405162461bcd60e51b8152602060048201526013602482015272496e73756666696369656e7420546f6b656e7360681b6044820152606401610239565b816107505760405162461bcd60e51b815260206004820152601a60248201527f416374696f6e436f756e742063616e6e6f74206265207a65726f0000000000006044820152606401610239565b61075e600180546001019055565b600061076960015490565b6040805160e0810182528281523360208083019182528284018a8152606084018a905260808401899052600060a0850181905260c0850189905286815260028084529590208451815592516001840180546001600160a01b0319166001600160a01b03909216919091179055518051959650929491936107ef9390850192910190610903565b506060820151805161080b916003840191602090910190610903565b506080820151816004015560a0820151816005015560c082015181600601559050507f16d92ebf8d1048dc9322cfd77b7ea85ffa1440e92b09dc45129944a0d30f8b0281338787876000886040516108699796959493929190610a32565b60405180910390a16000546040516323b872dd60e01b8152336004820152306024820152604481018490526001600160a01b03909116906323b872dd90606401602060405180830381600087803b1580156108c357600080fd5b505af11580156108d7573d6000803e3d6000fd5b505050506040513d601f19601f820116820180604052508101906108fb9190610bed565b505050505050565b82805461090f90610c0f565b90600052602060002090601f0160209004810192826109315760008555610977565b82601f1061094a57805160ff1916838001178555610977565b82800160010185558215610977579182015b8281111561097757825182559160200191906001019061095c565b50610983929150610987565b5090565b5b808211156109835760008155600101610988565b6000602082840312156109ae57600080fd5b5035919050565b6000602082840312156109c757600080fd5b81356001600160a01b03811681146109de57600080fd5b9392505050565b6000815180845260005b81811015610a0b576020818501810151868301820152016109ef565b81811115610a1d576000602083870101525b50601f01601f19169290920160200192915050565b8781526001600160a01b038716602082015260e060408201819052600090610a5c908301886109e5565b8281036060840152610a6e81886109e5565b6080840196909652505060a081019290925260c090910152949350505050565b634e487b7160e01b600052604160045260246000fd5b600082601f830112610ab557600080fd5b813567ffffffffffffffff80821115610ad057610ad0610a8e565b604051601f8301601f19908116603f01168101908282118183101715610af857610af8610a8e565b81604052838152866020858801011115610b1157600080fd5b836020870160208301376000602085830101528094505050505092915050565b60008060008060808587031215610b4757600080fd5b843567ffffffffffffffff80821115610b5f57600080fd5b610b6b88838901610aa4565b95506020870135915080821115610b8157600080fd5b50610b8e87828801610aa4565b949794965050505060408301359260600135919050565b600082610bc257634e487b7160e01b600052601260045260246000fd5b500490565b60008219821115610be857634e487b7160e01b600052601160045260246000fd5b500190565b600060208284031215610bff57600080fd5b815180151581146109de57600080fd5b600181811c90821680610c2357607f821691505b60208210811415610c4457634e487b7160e01b600052602260045260246000fd5b50919050565b600060208284031215610c5c57600080fd5b505191905056fea26469706673582212207401f2a6b99dee151942fc15953bff201fd7ab101e2354e9b1827d09882410cb64736f6c63430008090033",
  "devdoc": {
    "kind": "dev",
    "methods": {},
    "version": 1
  },
  "userdoc": {
    "kind": "user",
    "methods": {},
    "version": 1
  },
  "storageLayout": {
    "storage": [
      {
        "astId": 954,
        "contract": "contracts/RevnuRegistry.sol:RevnuRegistry",
        "label": "revnuToken",
        "offset": 0,
        "slot": "0",
        "type": "t_contract(RevnuToken)1268"
      },
      {
        "astId": 957,
        "contract": "contracts/RevnuRegistry.sol:RevnuRegistry",
        "label": "_bountiesCounter",
        "offset": 0,
        "slot": "1",
        "type": "t_struct(Counter)874_storage"
      },
      {
        "astId": 996,
        "contract": "contracts/RevnuRegistry.sol:RevnuRegistry",
        "label": "bountyRegistry",
        "offset": 0,
        "slot": "2",
        "type": "t_mapping(t_uint256,t_struct(Bounty)984_storage)"
      },
      {
        "astId": 1001,
        "contract": "contracts/RevnuRegistry.sol:RevnuRegistry",
        "label": "claimRegistry",
        "offset": 0,
        "slot": "3",
        "type": "t_mapping(t_bytes32,t_struct(Claim)991_storage)"
      },
      {
        "astId": 1005,
        "contract": "contracts/RevnuRegistry.sol:RevnuRegistry",
        "label": "claimEarnings",
        "offset": 0,
        "slot": "4",
        "type": "t_mapping(t_address,t_uint256)"
      }
    ],
    "types": {
      "t_address": {
        "encoding": "inplace",
        "label": "address",
        "numberOfBytes": "20"
      },
      "t_bytes32": {
        "encoding": "inplace",
        "label": "bytes32",
        "numberOfBytes": "32"
      },
      "t_contract(RevnuToken)1268": {
        "encoding": "inplace",
        "label": "contract RevnuToken",
        "numberOfBytes": "20"
      },
      "t_mapping(t_address,t_uint256)": {
        "encoding": "mapping",
        "key": "t_address",
        "label": "mapping(address => uint256)",
        "numberOfBytes": "32",
        "value": "t_uint256"
      },
      "t_mapping(t_bytes32,t_struct(Claim)991_storage)": {
        "encoding": "mapping",
        "key": "t_bytes32",
        "label": "mapping(bytes32 => struct RevnuRegistry.Claim)",
        "numberOfBytes": "32",
        "value": "t_struct(Claim)991_storage"
      },
      "t_mapping(t_uint256,t_struct(Bounty)984_storage)": {
        "encoding": "mapping",
        "key": "t_uint256",
        "label": "mapping(uint256 => struct RevnuRegistry.Bounty)",
        "numberOfBytes": "32",
        "value": "t_struct(Bounty)984_storage"
      },
      "t_string_storage": {
        "encoding": "bytes",
        "label": "string",
        "numberOfBytes": "32"
      },
      "t_struct(Bounty)984_storage": {
        "encoding": "inplace",
        "label": "struct RevnuRegistry.Bounty",
        "members": [
          {
            "astId": 971,
            "contract": "contracts/RevnuRegistry.sol:RevnuRegistry",
            "label": "bountyId",
            "offset": 0,
            "slot": "0",
            "type": "t_uint256"
          },
          {
            "astId": 973,
            "contract": "contracts/RevnuRegistry.sol:RevnuRegistry",
            "label": "bountyCreator",
            "offset": 0,
            "slot": "1",
            "type": "t_address"
          },
          {
            "astId": 975,
            "contract": "contracts/RevnuRegistry.sol:RevnuRegistry",
            "label": "actionId",
            "offset": 0,
            "slot": "2",
            "type": "t_string_storage"
          },
          {
            "astId": 977,
            "contract": "contracts/RevnuRegistry.sol:RevnuRegistry",
            "label": "actionType",
            "offset": 0,
            "slot": "3",
            "type": "t_string_storage"
          },
          {
            "astId": 979,
            "contract": "contracts/RevnuRegistry.sol:RevnuRegistry",
            "label": "actionCount",
            "offset": 0,
            "slot": "4",
            "type": "t_uint256"
          },
          {
            "astId": 981,
            "contract": "contracts/RevnuRegistry.sol:RevnuRegistry",
            "label": "noOfClaims",
            "offset": 0,
            "slot": "5",
            "type": "t_uint256"
          },
          {
            "astId": 983,
            "contract": "contracts/RevnuRegistry.sol:RevnuRegistry",
            "label": "reward",
            "offset": 0,
            "slot": "6",
            "type": "t_uint256"
          }
        ],
        "numberOfBytes": "224"
      },
      "t_struct(Claim)991_storage": {
        "encoding": "inplace",
        "label": "struct RevnuRegistry.Claim",
        "members": [
          {
            "astId": 986,
            "contract": "contracts/RevnuRegistry.sol:RevnuRegistry",
            "label": "bountyId",
            "offset": 0,
            "slot": "0",
            "type": "t_uint256"
          },
          {
            "astId": 988,
            "contract": "contracts/RevnuRegistry.sol:RevnuRegistry",
            "label": "claimer",
            "offset": 0,
            "slot": "1",
            "type": "t_address"
          },
          {
            "astId": 990,
            "contract": "contracts/RevnuRegistry.sol:RevnuRegistry",
            "label": "claimHash",
            "offset": 0,
            "slot": "2",
            "type": "t_bytes32"
          }
        ],
        "numberOfBytes": "96"
      },
      "t_struct(Counter)874_storage": {
        "encoding": "inplace",
        "label": "struct Counters.Counter",
        "members": [
          {
            "astId": 873,
            "contract": "contracts/RevnuRegistry.sol:RevnuRegistry",
            "label": "_value",
            "offset": 0,
            "slot": "0",
            "type": "t_uint256"
          }
        ],
        "numberOfBytes": "32"
      },
      "t_uint256": {
        "encoding": "inplace",
        "label": "uint256",
        "numberOfBytes": "32"
      }
    }
  }
}